{"bytecode":"60806040526000805534801561001457600080fd5b5060408051808201909152600a8152696669727374207461736b60b01b602082015261003f90610044565b610258565b6000805490806100538361018e565b9091555050604080516060810182526000808252805460208084018281528486018781529284526001808352959093208451815460ff1916901515178155925194830194909455518051929391926100b192600285019201906100f5565b509050507fc040cad7ca6b67bba31b969578aee69c350a0f1af12d689f9d0dbedc05b43e9160008054836040516100ea939291906101b7565b60405180910390a150565b8280546101019061021d565b90600052602060002090601f0160209004810192826101235760008555610169565b82601f1061013c57805160ff1916838001178555610169565b82800160010185558215610169579182015b8281111561016957825182559160200191906001019061014e565b50610175929150610179565b5090565b5b80821115610175576000815560010161017a565b60006000198214156101b057634e487b7160e01b600052601160045260246000fd5b5060010190565b831515815260006020848184015260606040840152835180606085015260005b818110156101f3578581018301518582016080015282016101d7565b81811115610205576000608083870101525b50601f01601f19169290920160800195945050505050565b600181811c9082168061023157607f821691505b6020821081141561025257634e487b7160e01b600052602260045260246000fd5b50919050565b6105ff806102676000396000f3fe608060405234801561001057600080fd5b50600436106100575760003560e01c8063111002aa1461005c5780638d97767214610071578063b6cb58a51461009c578063c17a340e146100b3578063e1e29558146100bb575b600080fd5b61006f61006a366004610435565b6100ce565b005b61008461007f3660046104e6565b61017f565b604051610093939291906104ff565b60405180910390f35b6100a560005481565b604051908152602001610093565b6000546100a5565b61006f6100c93660046104e6565b610231565b6000805490806100dd83610565565b9091555050604080516060810182526000808252805460208084018281528486018781529284526001808352959093208451815460ff19169015151781559251948301949094555180519293919261013b9260028501920190610386565b509050507fc040cad7ca6b67bba31b969578aee69c350a0f1af12d689f9d0dbedc05b43e916000805483604051610174939291906104ff565b60405180910390a150565b600160208190526000918252604090912080549181015460028201805460ff909416939192916101ae9061058e565b80601f01602080910402602001604051908101604052809291908181526020018280546101da9061058e565b80156102275780601f106101fc57610100808354040283529160200191610227565b820191906000526020600020905b81548152906001019060200180831161020a57829003601f168201915b5050505050905083565b60008181526001602081815260408084208151606081018352815460ff16151581529381015492840192909252600282018054918401916102719061058e565b80601f016020809104026020016040519081016040528092919081815260200182805461029d9061058e565b80156102ea5780601f106102bf576101008083540402835291602001916102ea565b820191906000526020600020905b8154815290600101906020018083116102cd57829003601f168201915b5050509190925250508151158252506000838152600160208181526040928390208451815460ff191690151517815581850151928101929092559183015180519394508493919261034392600285019290910190610386565b505081516040805185815291151560208301527fe21fa966ca5cd02748c0752352d18c48165e61cb55b4c29cccf924b5a95fcff192500160405180910390a15050565b8280546103929061058e565b90600052602060002090601f0160209004810192826103b457600085556103fa565b82601f106103cd57805160ff19168380011785556103fa565b828001600101855582156103fa579182015b828111156103fa5782518255916020019190600101906103df565b5061040692915061040a565b5090565b5b80821115610406576000815560010161040b565b634e487b7160e01b600052604160045260246000fd5b60006020828403121561044757600080fd5b813567ffffffffffffffff8082111561045f57600080fd5b818401915084601f83011261047357600080fd5b8135818111156104855761048561041f565b604051601f8201601f19908116603f011681019083821181831017156104ad576104ad61041f565b816040528281528760208487010111156104c657600080fd5b826020860160208301376000928101602001929092525095945050505050565b6000602082840312156104f857600080fd5b5035919050565b831515815260006020848184015260606040840152835180606085015260005b8181101561053b5785810183015185820160800152820161051f565b8181111561054d576000608083870101525b50601f01601f19169290920160800195945050505050565b600060001982141561058757634e487b7160e01b600052601160045260246000fd5b5060010190565b600181811c908216806105a257607f821691505b602082108114156105c357634e487b7160e01b600052602260045260246000fd5b5091905056fea2646970667358221220816cf8caa1df1792af7d05efd4b67ba659642909519fda264308358dd34bab0d64736f6c634300080a0033","bytecodeSha1":"c5fc581797238905902824f7063c3c8c71d3720c","type":"contract","abi":[{"inputs":[],"stateMutability":"nonpayable","type":"constructor","name":"constructor"},{"anonymous":false,"inputs":[{"indexed":false,"internalType":"uint256","name":"id","type":"uint256"},{"indexed":false,"internalType":"bool","name":"completed","type":"bool"}],"name":"TaskCompleted","type":"event"},{"anonymous":false,"inputs":[{"indexed":false,"internalType":"bool","name":"completed","type":"bool"},{"indexed":false,"internalType":"uint256","name":"id","type":"uint256"},{"indexed":false,"internalType":"string","name":"content","type":"string"}],"name":"TaskCreated","type":"event"},{"inputs":[{"internalType":"uint256","name":"_id","type":"uint256"}],"name":"completeTask","outputs":[],"stateMutability":"nonpayable","type":"function"},{"inputs":[{"internalType":"string","name":"_content","type":"string"}],"name":"createTask","outputs":[],"stateMutability":"nonpayable","type":"function"},{"inputs":[],"name":"getTaskCount","outputs":[{"internalType":"uint256","name":"","type":"uint256"}],"stateMutability":"nonpayable","type":"function"},{"inputs":[],"name":"taskCount","outputs":[{"internalType":"uint256","name":"","type":"uint256"}],"stateMutability":"view","type":"function"},{"inputs":[{"internalType":"uint256","name":"","type":"uint256"}],"name":"tasks","outputs":[{"internalType":"bool","name":"completed","type":"bool"},{"internalType":"uint256","name":"id","type":"uint256"},{"internalType":"string","name":"content","type":"string"}],"stateMutability":"view","type":"function"}],"compiler":{"version":"0.8.10+commit.fc410830","evm_version":"istanbul","optimizer":{"enabled":true,"runs":200}},"contractName":"TodoList","language":"Solidity","natspec":{"methods":{},"kind":"dev","version":1},"opcodes":"PUSH1 0x80 PUSH1 0x40 MSTORE CALLVALUE DUP1 ISZERO PUSH2 0x10 JUMPI PUSH1 0x0 DUP1 REVERT JUMPDEST POP PUSH1 0x4 CALLDATASIZE LT PUSH2 0x57 JUMPI PUSH1 0x0 CALLDATALOAD PUSH1 0xE0 SHR DUP1 PUSH4 0x111002AA EQ PUSH2 0x5C JUMPI DUP1 PUSH4 0x8D977672 EQ PUSH2 0x71 JUMPI DUP1 PUSH4 0xB6CB58A5 EQ PUSH2 0x9C JUMPI DUP1 PUSH4 0xC17A340E EQ PUSH2 0xB3 JUMPI DUP1 PUSH4 0xE1E29558 EQ PUSH2 0xBB JUMPI JUMPDEST PUSH1 0x0 DUP1 REVERT JUMPDEST PUSH2 0x6F PUSH2 0x6A CALLDATASIZE PUSH1 0x4 PUSH2 0x435 JUMP JUMPDEST PUSH2 0xCE JUMP JUMPDEST STOP JUMPDEST PUSH2 0x84 PUSH2 0x7F CALLDATASIZE PUSH1 0x4 PUSH2 0x4E6 JUMP JUMPDEST PUSH2 0x17F JUMP JUMPDEST PUSH1 0x40 MLOAD PUSH2 0x93 SWAP4 SWAP3 SWAP2 SWAP1 PUSH2 0x4FF JUMP JUMPDEST PUSH1 0x40 MLOAD DUP1 SWAP2 SUB SWAP1 RETURN JUMPDEST PUSH2 0xA5 PUSH1 0x0 SLOAD DUP2 JUMP JUMPDEST PUSH1 0x40 MLOAD SWAP1 DUP2 MSTORE PUSH1 0x20 ADD PUSH2 0x93 JUMP JUMPDEST PUSH1 0x0 SLOAD PUSH2 0xA5 JUMP JUMPDEST PUSH2 0x6F PUSH2 0xC9 CALLDATASIZE PUSH1 0x4 PUSH2 0x4E6 JUMP JUMPDEST PUSH2 0x231 JUMP JUMPDEST PUSH1 0x0 DUP1 SLOAD SWAP1 DUP1 PUSH2 0xDD DUP4 PUSH2 0x565 JUMP JUMPDEST SWAP1 SWAP2 SSTORE POP POP PUSH1 0x40 DUP1 MLOAD PUSH1 0x60 DUP2 ADD DUP3 MSTORE PUSH1 0x0 DUP1 DUP3 MSTORE DUP1 SLOAD PUSH1 0x20 DUP1 DUP5 ADD DUP3 DUP2 MSTORE DUP5 DUP7 ADD DUP8 DUP2 MSTORE SWAP3 DUP5 MSTORE PUSH1 0x1 DUP1 DUP4 MSTORE SWAP6 SWAP1 SWAP4 KECCAK256 DUP5 MLOAD DUP2 SLOAD PUSH1 0xFF NOT AND SWAP1 ISZERO ISZERO OR DUP2 SSTORE SWAP3 MLOAD SWAP5 DUP4 ADD SWAP5 SWAP1 SWAP5 SSTORE MLOAD DUP1 MLOAD SWAP3 SWAP4 SWAP2 SWAP3 PUSH2 0x13B SWAP3 PUSH1 0x2 DUP6 ADD SWAP3 ADD SWAP1 PUSH2 0x386 JUMP JUMPDEST POP SWAP1 POP POP PUSH32 0xC040CAD7CA6B67BBA31B969578AEE69C350A0F1AF12D689F9D0DBEDC05B43E91 PUSH1 0x0 DUP1 SLOAD DUP4 PUSH1 0x40 MLOAD PUSH2 0x174 SWAP4 SWAP3 SWAP2 SWAP1 PUSH2 0x4FF JUMP JUMPDEST PUSH1 0x40 MLOAD DUP1 SWAP2 SUB SWAP1 LOG1 POP JUMP JUMPDEST PUSH1 0x1 PUSH1 0x20 DUP2 SWAP1 MSTORE PUSH1 0x0 SWAP2 DUP3 MSTORE PUSH1 0x40 SWAP1 SWAP2 KECCAK256 DUP1 SLOAD SWAP2 DUP2 ADD SLOAD PUSH1 0x2 DUP3 ADD DUP1 SLOAD PUSH1 0xFF SWAP1 SWAP5 AND SWAP4 SWAP2 SWAP3 SWAP2 PUSH2 0x1AE SWAP1 PUSH2 0x58E JUMP JUMPDEST DUP1 PUSH1 0x1F ADD PUSH1 0x20 DUP1 SWAP2 DIV MUL PUSH1 0x20 ADD PUSH1 0x40 MLOAD SWAP1 DUP2 ADD PUSH1 0x40 MSTORE DUP1 SWAP3 SWAP2 SWAP1 DUP2 DUP2 MSTORE PUSH1 0x20 ADD DUP3 DUP1 SLOAD PUSH2 0x1DA SWAP1 PUSH2 0x58E JUMP JUMPDEST DUP1 ISZERO PUSH2 0x227 JUMPI DUP1 PUSH1 0x1F LT PUSH2 0x1FC JUMPI PUSH2 0x100 DUP1 DUP4 SLOAD DIV MUL DUP4 MSTORE SWAP2 PUSH1 0x20 ADD SWAP2 PUSH2 0x227 JUMP JUMPDEST DUP3 ADD SWAP2 SWAP1 PUSH1 0x0 MSTORE PUSH1 0x20 PUSH1 0x0 KECCAK256 SWAP1 JUMPDEST DUP2 SLOAD DUP2 MSTORE SWAP1 PUSH1 0x1 ADD SWAP1 PUSH1 0x20 ADD DUP1 DUP4 GT PUSH2 0x20A JUMPI DUP3 SWAP1 SUB PUSH1 0x1F AND DUP3 ADD SWAP2 JUMPDEST POP POP POP POP POP SWAP1 POP DUP4 JUMP JUMPDEST PUSH1 0x0 DUP2 DUP2 MSTORE PUSH1 0x1 PUSH1 0x20 DUP2 DUP2 MSTORE PUSH1 0x40 DUP1 DUP5 KECCAK256 DUP2 MLOAD PUSH1 0x60 DUP2 ADD DUP4 MSTORE DUP2 SLOAD PUSH1 0xFF AND ISZERO ISZERO DUP2 MSTORE SWAP4 DUP2 ADD SLOAD SWAP3 DUP5 ADD SWAP3 SWAP1 SWAP3 MSTORE PUSH1 0x2 DUP3 ADD DUP1 SLOAD SWAP2 DUP5 ADD SWAP2 PUSH2 0x271 SWAP1 PUSH2 0x58E JUMP JUMPDEST DUP1 PUSH1 0x1F ADD PUSH1 0x20 DUP1 SWAP2 DIV MUL PUSH1 0x20 ADD PUSH1 0x40 MLOAD SWAP1 DUP2 ADD PUSH1 0x40 MSTORE DUP1 SWAP3 SWAP2 SWAP1 DUP2 DUP2 MSTORE PUSH1 0x20 ADD DUP3 DUP1 SLOAD PUSH2 0x29D SWAP1 PUSH2 0x58E JUMP JUMPDEST DUP1 ISZERO PUSH2 0x2EA JUMPI DUP1 PUSH1 0x1F LT PUSH2 0x2BF JUMPI PUSH2 0x100 DUP1 DUP4 SLOAD DIV MUL DUP4 MSTORE SWAP2 PUSH1 0x20 ADD SWAP2 PUSH2 0x2EA JUMP JUMPDEST DUP3 ADD SWAP2 SWAP1 PUSH1 0x0 MSTORE PUSH1 0x20 PUSH1 0x0 KECCAK256 SWAP1 JUMPDEST DUP2 SLOAD DUP2 MSTORE SWAP1 PUSH1 0x1 ADD SWAP1 PUSH1 0x20 ADD DUP1 DUP4 GT PUSH2 0x2CD JUMPI DUP3 SWAP1 SUB PUSH1 0x1F AND DUP3 ADD SWAP2 JUMPDEST POP POP POP SWAP2 SWAP1 SWAP3 MSTORE POP POP DUP2 MLOAD ISZERO DUP3 MSTORE POP PUSH1 0x0 DUP4 DUP2 MSTORE PUSH1 0x1 PUSH1 0x20 DUP2 DUP2 MSTORE PUSH1 0x40 SWAP3 DUP4 SWAP1 KECCAK256 DUP5 MLOAD DUP2 SLOAD PUSH1 0xFF NOT AND SWAP1 ISZERO ISZERO OR DUP2 SSTORE DUP2 DUP6 ADD MLOAD SWAP3 DUP2 ADD SWAP3 SWAP1 SWAP3 SSTORE SWAP2 DUP4 ADD MLOAD DUP1 MLOAD SWAP4 SWAP5 POP DUP5 SWAP4 SWAP2 SWAP3 PUSH2 0x343 SWAP3 PUSH1 0x2 DUP6 ADD SWAP3 SWAP1 SWAP2 ADD SWAP1 PUSH2 0x386 JUMP JUMPDEST POP POP DUP2 MLOAD PUSH1 0x40 DUP1 MLOAD DUP6 DUP2 MSTORE SWAP2 ISZERO ISZERO PUSH1 0x20 DUP4 ADD MSTORE PUSH32 0xE21FA966CA5CD02748C0752352D18C48165E61CB55B4C29CCCF924B5A95FCFF1 SWAP3 POP ADD PUSH1 0x40 MLOAD DUP1 SWAP2 SUB SWAP1 LOG1 POP POP JUMP JUMPDEST DUP3 DUP1 SLOAD PUSH2 0x392 SWAP1 PUSH2 0x58E JUMP JUMPDEST SWAP1 PUSH1 0x0 MSTORE PUSH1 0x20 PUSH1 0x0 KECCAK256 SWAP1 PUSH1 0x1F ADD PUSH1 0x20 SWAP1 DIV DUP2 ADD SWAP3 DUP3 PUSH2 0x3B4 JUMPI PUSH1 0x0 DUP6 SSTORE PUSH2 0x3FA JUMP JUMPDEST DUP3 PUSH1 0x1F LT PUSH2 0x3CD JUMPI DUP1 MLOAD PUSH1 0xFF NOT AND DUP4 DUP1 ADD OR DUP6 SSTORE PUSH2 0x3FA JUMP JUMPDEST DUP3 DUP1 ADD PUSH1 0x1 ADD DUP6 SSTORE DUP3 ISZERO PUSH2 0x3FA JUMPI SWAP2 DUP3 ADD JUMPDEST DUP3 DUP2 GT ISZERO PUSH2 0x3FA JUMPI DUP3 MLOAD DUP3 SSTORE SWAP2 PUSH1 0x20 ADD SWAP2 SWAP1 PUSH1 0x1 ADD SWAP1 PUSH2 0x3DF JUMP JUMPDEST POP PUSH2 0x406 SWAP3 SWAP2 POP PUSH2 0x40A JUMP JUMPDEST POP SWAP1 JUMP JUMPDEST JUMPDEST DUP1 DUP3 GT ISZERO PUSH2 0x406 JUMPI PUSH1 0x0 DUP2 SSTORE PUSH1 0x1 ADD PUSH2 0x40B JUMP JUMPDEST PUSH4 0x4E487B71 PUSH1 0xE0 SHL PUSH1 0x0 MSTORE PUSH1 0x41 PUSH1 0x4 MSTORE PUSH1 0x24 PUSH1 0x0 REVERT JUMPDEST PUSH1 0x0 PUSH1 0x20 DUP3 DUP5 SUB SLT ISZERO PUSH2 0x447 JUMPI PUSH1 0x0 DUP1 REVERT JUMPDEST DUP2 CALLDATALOAD PUSH8 0xFFFFFFFFFFFFFFFF DUP1 DUP3 GT ISZERO PUSH2 0x45F JUMPI PUSH1 0x0 DUP1 REVERT JUMPDEST DUP2 DUP5 ADD SWAP2 POP DUP5 PUSH1 0x1F DUP4 ADD SLT PUSH2 0x473 JUMPI PUSH1 0x0 DUP1 REVERT JUMPDEST DUP2 CALLDATALOAD DUP2 DUP2 GT ISZERO PUSH2 0x485 JUMPI PUSH2 0x485 PUSH2 0x41F JUMP JUMPDEST PUSH1 0x40 MLOAD PUSH1 0x1F DUP3 ADD PUSH1 0x1F NOT SWAP1 DUP2 AND PUSH1 0x3F ADD AND DUP2 ADD SWAP1 DUP4 DUP3 GT DUP2 DUP4 LT OR ISZERO PUSH2 0x4AD JUMPI PUSH2 0x4AD PUSH2 0x41F JUMP JUMPDEST DUP2 PUSH1 0x40 MSTORE DUP3 DUP2 MSTORE DUP8 PUSH1 0x20 DUP5 DUP8 ADD ADD GT ISZERO PUSH2 0x4C6 JUMPI PUSH1 0x0 DUP1 REVERT JUMPDEST DUP3 PUSH1 0x20 DUP7 ADD PUSH1 0x20 DUP4 ADD CALLDATACOPY PUSH1 0x0 SWAP3 DUP2 ADD PUSH1 0x20 ADD SWAP3 SWAP1 SWAP3 MSTORE POP SWAP6 SWAP5 POP POP POP POP POP JUMP JUMPDEST PUSH1 0x0 PUSH1 0x20 DUP3 DUP5 SUB SLT ISZERO PUSH2 0x4F8 JUMPI PUSH1 0x0 DUP1 REVERT JUMPDEST POP CALLDATALOAD SWAP2 SWAP1 POP JUMP JUMPDEST DUP4 ISZERO ISZERO DUP2 MSTORE PUSH1 0x0 PUSH1 0x20 DUP5 DUP2 DUP5 ADD MSTORE PUSH1 0x60 PUSH1 0x40 DUP5 ADD MSTORE DUP4 MLOAD DUP1 PUSH1 0x60 DUP6 ADD MSTORE PUSH1 0x0 JUMPDEST DUP2 DUP2 LT ISZERO PUSH2 0x53B JUMPI DUP6 DUP2 ADD DUP4 ADD MLOAD DUP6 DUP3 ADD PUSH1 0x80 ADD MSTORE DUP3 ADD PUSH2 0x51F JUMP JUMPDEST DUP2 DUP2 GT ISZERO PUSH2 0x54D JUMPI PUSH1 0x0 PUSH1 0x80 DUP4 DUP8 ADD ADD MSTORE JUMPDEST POP PUSH1 0x1F ADD PUSH1 0x1F NOT AND SWAP3 SWAP1 SWAP3 ADD PUSH1 0x80 ADD SWAP6 SWAP5 POP POP POP POP POP JUMP JUMPDEST PUSH1 0x0 PUSH1 0x0 NOT DUP3 EQ ISZERO PUSH2 0x587 JUMPI PUSH4 0x4E487B71 PUSH1 0xE0 SHL PUSH1 0x0 MSTORE PUSH1 0x11 PUSH1 0x4 MSTORE PUSH1 0x24 PUSH1 0x0 REVERT JUMPDEST POP PUSH1 0x1 ADD SWAP1 JUMP JUMPDEST PUSH1 0x1 DUP2 DUP2 SHR SWAP1 DUP3 AND DUP1 PUSH2 0x5A2 JUMPI PUSH1 0x7F DUP3 AND SWAP2 POP JUMPDEST PUSH1 0x20 DUP3 LT DUP2 EQ ISZERO PUSH2 0x5C3 JUMPI PUSH4 0x4E487B71 PUSH1 0xE0 SHL PUSH1 0x0 MSTORE PUSH1 0x22 PUSH1 0x4 MSTORE PUSH1 0x24 PUSH1 0x0 REVERT JUMPDEST POP SWAP2 SWAP1 POP JUMP INVALID LOG2 PUSH5 0x6970667358 0x22 SLT KECCAK256 DUP2 PUSH13 0xF8CAA1DF1792AF7D05EFD4B67B 0xA6 MSIZE PUSH5 0x2909519FDA 0x26 NUMBER ADDMOD CALLDATALOAD DUP14 0xD3 0x4B 0xAB 0xD PUSH5 0x736F6C6343 STOP ADDMOD EXP STOP CALLER ","sha1":"03d63c27146800ae58498a3952d11ce266694551","source":"// SPDX-License-Identifier: MIT\npragma solidity ^0.8.0;\n\ncontract TodoList {\n    uint256 public taskCount = 0;\n\n    struct Task {\n        bool completed;\n        uint256 id;\n        string content;\n    }\n\n    mapping(uint256 => Task) public tasks;\n\n    event TaskCreated(bool completed, uint256 id, string content);\n    event TaskCompleted(uint256 id, bool completed);\n\n    constructor() public {\n        createTask(\"first task\");\n    }\n\n    function createTask(string memory _content) public{\n        taskCount++;\n        tasks[taskCount] = Task(false, taskCount , _content);\n        emit TaskCreated(false, taskCount , _content);\n    }\n\n    function completeTask(uint256 _id) public{\n        Task memory _task = tasks[_id];\n        _task.completed = !_task.completed;\n        tasks[_id] = _task;\n        emit TaskCompleted(_id, _task.completed);\n    }\n\n    function getTaskCount() public returns(uint256){\n        return taskCount;\n    }\n}","sourcePath":"contracts/TodoList.sol","deployment":{"address":"0x8c617784e327DF408eBCDB5E42Dae3825Ed658B0","chainid":"4","blockHeight":9814719}}